:020000040000FA
:1000000002EF00F0956AFF0E936E0F0EC16E926ABA
:100010008C6A8A6A8C8039EC00F08C906FEC00F06E
:1000200039EC00F039EC00F039EC00F039EC00F07C
:1000300039EC00F039EC00F039EC00F039EC00F06C
:1000400039EC00F039EC00F039EC00F039EC00F05C
:1000500039EC00F039EC00F039EC00F039EC00F04C
:1000600039EC00F039EC00F039EC00F039EC00F03C
:100070001200C70E3FEF00F0320E3FEF00F0216E8E
:10008000B40E206E0000202E5AEF00F0212E40EF1B
:1000900000F012000000000000000A0E57EF00F010
:1000A000030E57EF00F0030E57EF00F0050E216E20
:1000B000A50E206E202E5AEF00F0212E58EF00F0F2
:1000C0001200A40E000072EF00F0510E72EF00F06B
:1000D0001F0E72EF00F00E0E000072EF00F0060E21
:1000E00072EF00F0206E202E73EF00F0120000007F
:0200F0001200FC
:0200F20000000C
:020000040030CA
:0100000000FF
:010001000CF2
:0100020018E5
:010003001EDE
:010005008179
:010006008079
:010008000FE8
:01000900C036
:01000A000FE6
:01000B00E014
:01000C000FE4
:01000D0040B2
:00000001FF
