:020000040000FA
:0400000010EF00F00D
:020004000000FA
:100020001DEC00F0410E63EC00F0420E63EC00F0BA
:10003000430E63EC00F01BEF00F0956A94909492ED
:1000400086EC00F08B90300E43EC00F07DEC00F07D
:1000500086EC00F0300E43EC00F07DEC00F086EC16
:1000600000F0300E43EC00F07DEC00F086EC00F088
:10007000200E43EC00F0280E57EC00F05BEC00F093
:100080005FEC00F01200F00B8B90036E8C500F0BA6
:10009000031203508C6E7DEC00F01200046E0450CD
:1000A00043EC00F0043A045043EC00F012000C0E54
:1000B0004EEC00F01200010E4EEC00F01200060EA5
:1000C0004EEC00F01200026E8B8002506DEC00F0DE
:1000D000023A02506DEC00F01200F00B036E8C50EF
:1000E0000F0B031203508C6E7DEC00F01200800F9A
:1000F0004EEF00F0C00F4EEF00F086EC00F086EC03
:1001000000F08B8286EC00F08B921200016EF90EEB
:0E011000006E0000002E89EF00F0015012007A
:020000040030CA
:0100000000FF
:0100010000FE
:0100020019E4
:010003001EDE
:01000500807A
:010006008079
:010008000FE8
:01000900C036
:01000A000FE6
:01000B00E014
:01000C000FE4
:01000D0040B2
:00000001FF
