:020000040000FA
:0400000010EF00F00D
:020004000000FA
:10002000956A006A016A936A0F0EC16E8A908A828D
:10003000005000EC01F08C6E140E006237EF00F0FF
:10004000006A8A808A92020E0126015000EC01F0BB
:100050008C6E140E01642FEF00F0016A006A6AECE6
:1000600000F06AEC00F06AEC00F016EF00F06AECC9
:1000700000F06AEC00F06AEC00F0020E002616EFC9
:1000800000F06AEC00F06AEC00F06AEC00F06AEC58
:1000900000F06AEC00F06AEC00F06AEC00F06AEC48
:1000A00000F06AEC00F06AEC00F06AEC00F06AEC38
:1000B00000F06AEC00F06AEC00F06AEC00F06AEC28
:1000C00000F06AEC00F06AEC00F06AEC00F06AEC18
:1000D00000F01200C70E70EF00F0320E70EF00F06B
:1000E000216EB40E206E0000202E8BEF00F0212E2A
:1000F00071EF00F012000000000000000A0E88EF0F
:1001000000F0030E88EF00F0030E88EF00F0050EFC
:10011000216EA50E206E202E8BEF00F0212E89EF90
:1001200000F01200A40E0000A3EF00F0510EA3EFA8
:1001300000F01F0EA3EF00F00E0E0000A3EF00F082
:10014000060EA3EF00F0206E202EA4EF00F01200A8
:040150000000120099
:10020000F9263F0C060C5B0C4F0C660C6D0C7D0C3C
:10021000070C7F0C670C770C7C0C390C5E0C790C8E
:02022000710C5F
:020000040030CA
:0100000000FF
:010001000CF2
:0100020018E5
:010003001EDE
:010005008179
:010006008079
:010008000FE8
:01000900C036
:01000A000FE6
:01000B00E014
:01000C000FE4
:01000D0040B2
:00000001FF
