:020000040000FA
:0400000010EF00F00D
:020004000000FA
:0400080044EF00F0D1
:10002000050E216E020E206E0F0EC16E939071ECC4
:1000300000F0010ECAEC00F0480EB3EC00F04F0ED9
:10004000B3EC00F0520EB3EC00F0410EB3EC00F054
:100050003A0EB3EC00F038EC00F0070ECAEC00F0FA
:10006000300EB3EC00F0300EB3EC00F036EF00F0E1
:10007000800ECF6ECE6A0F0ECD6EF28EF28C9D800A
:100080009E909F80D08E1200CEB044EF00F0CEA0A4
:1000900047EF00F0CF8E080ECAEC00F0202A0A0EBF
:1000A00020625AEF00F0206A212A060E21625AEFE0
:1000B00000F0216A080ECAEC00F02050300FB3ECBB
:1000C00000F0070ECAEC00F02150300FB3EC00F046
:1000D0008AA06EEF00F08A906FEF00F08A809E9009
:1000E000100095909592956ADBEC00F0300EA9EC2B
:1000F00000F0DBEC00F0DBEC00F0DBEC00F0DBEC24
:1001000000F0300EA9EC00F0DBEC00F0300EA9ECB2
:1001100000F0200EA9EC00F09EEC00F09BEC00F04B
:1001200098EC00F095EC00F01200060EA1EF00F044
:10013000010EA1EF00F00C0EA1EF00F0280EA1EFD0
:1001400000F0016E0150A9EC00F00138A9EC00F0BC
:1001500012008C90F00B006E8C500F0B00108C6E08
:10016000D2EC00F012008C80B9EC00F0DBEC00F077
:100170001200016E0150C1EC00F00138C1EC00F03A
:100180001200F00B006E8C500F0B00108C6ED2EC36
:1001900000F01200800FA1EF00F01200C00FA1EFDD
:1001A00000F01200DBEC00F0DBEC00F08C82DBEC0A
:1001B00000F08C921200036EF90E026E0000022E07
:0801C000DEEF00F00350120015
:020000040030CA
:0100000000FF
:0100010000FE
:0100020019E4
:010003001EDE
:01000500807A
:010006008079
:010008000FE8
:01000900C036
:01000A000FE6
:01000B00E014
:01000C000FE4
:01000D0040B2
:00000001FF
