:020000040000FA
:040000000BEF01F011
:020004000000FA
:10020000F9264D0C490C410C550C200C4D0C490C99
:10021000410C550C2F0C2AEC01F0050E83EC01F07B
:10022000410E6CEC01F0000E87EC01F01AEC01F0CD
:1002300018EF01F0005000EC01F0006E0050496230
:1002400023EF01F0120000506CEC01F0020E0026CA
:100250001AEF01F094909492956A94EC01F0300EAC
:1002600062EC01F094EC01F094EC01F094EC01F0FC
:1002700094EC01F0300E62EC01F094EC01F0300EE1
:1002800062EC01F0200E62EC01F057EC01F054EC4E
:1002900001F051EC01F04EEC01F01200060E5AEFA5
:1002A00001F0010E5AEF01F00C0E5AEF01F0280E8A
:1002B0005AEF01F0016E015062EC01F0013862EC7E
:1002C00001F012008B90F00B006E8C500F0B0010A1
:1002D0008C6E8BEC01F012008B8072EC01F094ECD0
:1002E00001F01200016E01507AEC01F001387AEC55
:1002F00001F01200F00B006E8C500F0B00108C6E92
:100300008BEC01F01200800F5AEF01F01200C00FC9
:100310005AEF01F0120094EC01F094EC01F08B82A2
:1003200094EC01F08B921200F90E026E0000022E86
:0603300096EF01F012003F
:020000040030CA
:0100000000FF
:0100010000FE
:0100020019E4
:010003001EDE
:01000500807A
:010006008079
:010008000FE8
:01000900C036
:01000A000FE6
:01000B00E014
:01000C000FE4
:01000D0040B2
:00000001FF
