:020000040000FA
:0400000010EF00F00D
:020004000000FA
:020008001000E6
:10002000010E226E020E236E1F0E216E000E246E34
:10003000958295801E0ECB6E000EBE6E9494BD9878
:10004000BD8ACA84CA82CA80BD86BD84BD92BD9065
:100050008B948350010B226230EF00F040EF00F0F0
:100060008350020B23623EEF00F0200620502462F2
:1000700047EF00F0010E206E47EF00F029EF00F08F
:10008000202A2050216247EF00F01E0E206E4FEC18
:1000900000F02050BE6E4FEC00F029EF00F0640E2F
:1000A00053EF00F0010E256EF90E266E0000262E8D
:0C00B00056EF00F0252E54EF00F0120077
:020000040030CA
:0100000000FF
:010001000CF2
:0100020019E4
:010003001EDE
:01000500807A
:010006008079
:010008000FE8
:01000900C036
:01000A000FE6
:01000B00E014
:01000C000FE4
:01000D0040B2
:00000001FF
